{
  "contractName": "GSPB",
  "abi": [
    {
      "constant": true,
      "inputs": [
        {
          "name": "",
          "type": "address"
        }
      ],
      "name": "students",
      "outputs": [
        {
          "name": "name",
          "type": "string"
        },
        {
          "name": "point",
          "type": "uint256"
        }
      ],
      "payable": false,
      "stateMutability": "view",
      "type": "function"
    },
    {
      "constant": true,
      "inputs": [
        {
          "name": "",
          "type": "address"
        }
      ],
      "name": "isJoin",
      "outputs": [
        {
          "name": "",
          "type": "bool"
        }
      ],
      "payable": false,
      "stateMutability": "view",
      "type": "function"
    },
    {
      "constant": true,
      "inputs": [
        {
          "name": "",
          "type": "uint256"
        }
      ],
      "name": "groupStudyList",
      "outputs": [
        {
          "name": "name",
          "type": "string"
        },
        {
          "name": "studyOwner",
          "type": "address"
        },
        {
          "name": "live",
          "type": "bool"
        },
        {
          "name": "point",
          "type": "uint256"
        },
        {
          "name": "limit",
          "type": "uint256"
        }
      ],
      "payable": false,
      "stateMutability": "view",
      "type": "function"
    },
    {
      "inputs": [],
      "payable": false,
      "stateMutability": "nonpayable",
      "type": "constructor"
    },
    {
      "anonymous": false,
      "inputs": [
        {
          "indexed": false,
          "name": "_name",
          "type": "string"
        },
        {
          "indexed": false,
          "name": "isJoin",
          "type": "bool"
        }
      ],
      "name": "joinPlatformEvent",
      "type": "event"
    },
    {
      "anonymous": false,
      "inputs": [
        {
          "indexed": false,
          "name": "_name",
          "type": "string"
        },
        {
          "indexed": false,
          "name": "_participants",
          "type": "address[]"
        },
        {
          "indexed": false,
          "name": "_point",
          "type": "uint256"
        },
        {
          "indexed": false,
          "name": "groupStudyNum",
          "type": "uint256"
        }
      ],
      "name": "addGroupStudyEvnet",
      "type": "event"
    },
    {
      "anonymous": false,
      "inputs": [
        {
          "indexed": false,
          "name": "_index",
          "type": "uint256"
        },
        {
          "indexed": false,
          "name": "ranking",
          "type": "uint256[]"
        },
        {
          "indexed": false,
          "name": "klay",
          "type": "uint256"
        }
      ],
      "name": "closeStudyEvent",
      "type": "event"
    },
    {
      "anonymous": false,
      "inputs": [
        {
          "indexed": false,
          "name": "_index",
          "type": "uint256"
        }
      ],
      "name": "depostieEvent",
      "type": "event"
    },
    {
      "constant": false,
      "inputs": [],
      "name": "isJoinCheck",
      "outputs": [
        {
          "name": "",
          "type": "bool"
        }
      ],
      "payable": false,
      "stateMutability": "nonpayable",
      "type": "function"
    },
    {
      "constant": false,
      "inputs": [
        {
          "name": "_name",
          "type": "string"
        }
      ],
      "name": "joinPlatform",
      "outputs": [],
      "payable": false,
      "stateMutability": "nonpayable",
      "type": "function"
    },
    {
      "constant": false,
      "inputs": [
        {
          "name": "_name",
          "type": "string"
        },
        {
          "name": "_participants",
          "type": "address[]"
        },
        {
          "name": "_point",
          "type": "uint256"
        },
        {
          "name": "_limit",
          "type": "uint256"
        }
      ],
      "name": "addGroupStudy",
      "outputs": [],
      "payable": false,
      "stateMutability": "nonpayable",
      "type": "function"
    },
    {
      "constant": true,
      "inputs": [],
      "name": "getBalance",
      "outputs": [
        {
          "name": "",
          "type": "uint256"
        }
      ],
      "payable": false,
      "stateMutability": "view",
      "type": "function"
    },
    {
      "constant": false,
      "inputs": [
        {
          "name": "_index",
          "type": "uint256"
        }
      ],
      "name": "depostie",
      "outputs": [],
      "payable": true,
      "stateMutability": "payable",
      "type": "function"
    },
    {
      "constant": false,
      "inputs": [
        {
          "name": "_index",
          "type": "uint256"
        },
        {
          "name": "ranking",
          "type": "uint256[]"
        }
      ],
      "name": "closeStudy",
      "outputs": [
        {
          "name": "",
          "type": "bool"
        }
      ],
      "payable": false,
      "stateMutability": "nonpayable",
      "type": "function"
    }
  ],
  "bytecode": "0x608060405234801561001057600080fd5b50336000806101000a81548173ffffffffffffffffffffffffffffffffffffffff021916908373ffffffffffffffffffffffffffffffffffffffff160217905550611317806100606000396000f300608060405260043610610099576000357c0100000000000000000000000000000000000000000000000000000000900463ffffffff16806312065fe01461009e5780631a4b10ee146100c957806370122e661461018957806370b50c24146102115780638b7d3e6414610231578063a6c807a91461029a578063b7b68f2d1461035d578063bd4b18fc1461038c578063bd8ba450146103e7575b600080fd5b3480156100aa57600080fd5b506100b36104d9565b6040518082815260200191505060405180910390f35b3480156100d557600080fd5b50610187600480360381019080803590602001908201803590602001908080601f01602080910402602001604051908101604052809392919081815260200183838082843782019150505050505091929192908035906020019082018035906020019080806020026020016040519081016040528093929190818152602001838360200280828437820191505050505050919291929080359060200190929190803590602001909291905050506104f8565b005b34801561019557600080fd5b506101f760048036038101908080359060200190929190803590602001908201803590602001908080602002602001604051908101604052809392919081815260200183836020028082843782019150505050505091929192905050506107d0565b604051808215151515815260200191505060405180910390f35b61022f60048036038101908080359060200190929190505050610c2f565b005b34801561023d57600080fd5b50610298600480360381019080803590602001908201803590602001908080601f0160208091040260200160405190810160405280939291908181526020018383808284378201915050505050509192919290505050610c94565b005b3480156102a657600080fd5b506102db600480360381019080803573ffffffffffffffffffffffffffffffffffffffff169060200190929190505050610ee1565b6040518080602001838152602001828103825284818151815260200191508051906020019080838360005b83811015610321578082015181840152602081019050610306565b50505050905090810190601f16801561034e5780820380516001836020036101000a031916815260200191505b50935050505060405180910390f35b34801561036957600080fd5b50610372610f9d565b604051808215151515815260200191505060405180910390f35b34801561039857600080fd5b506103cd600480360381019080803573ffffffffffffffffffffffffffffffffffffffff169060200190929190505050611002565b604051808215151515815260200191505060405180910390f35b3480156103f357600080fd5b5061041260048036038101908080359060200190929190505050611022565b60405180806020018673ffffffffffffffffffffffffffffffffffffffff1673ffffffffffffffffffffffffffffffffffffffff16815260200185151515158152602001848152602001838152602001828103825287818151815260200191508051906020019080838360005b8381101561049a57808201518184015260208101905061047f565b50505050905090810190601f1680156104c75780820380516001836020036101000a031916815260200191505b50965050505050505060405180910390f35b60003073ffffffffffffffffffffffffffffffffffffffff1631905090565b6000600360c0604051908101604052808781526020013373ffffffffffffffffffffffffffffffffffffffff1681526020018681526020016001151581526020018581526020018481525090806001815401808255809150509060018203906000526020600020906007020160009091929091909150600082015181600001908051906020019061058a92919061112c565b5060208201518160010160006101000a81548173ffffffffffffffffffffffffffffffffffffffff021916908373ffffffffffffffffffffffffffffffffffffffff16021790555060408201518160020190805190602001906105ee9291906111ac565b5060608201518160030160006101000a81548160ff0219169083151502179055506080820151816004015560a08201518160050155505050600090505b83518110156106cc5760026000858381518110151561064657fe5b9060200190602002015173ffffffffffffffffffffffffffffffffffffffff1673ffffffffffffffffffffffffffffffffffffffff1681526020019081526020016000206002016001600380549050039080600181540180825580915050906001820390600052602060002001600090919290919091505550808060010191505061062b565b7fc2ca714755a82e3176c4ca19fb773d52efe941f0e1ce1b516bc74873ec462b59858585600160038054905003604051808060200180602001858152602001848152602001838103835287818151815260200191508051906020019080838360005b8381101561074957808201518184015260208101905061072e565b50505050905090810190601f1680156107765780820380516001836020036101000a031916815260200191505b50838103825286818151815260200191508051906020019060200280838360005b838110156107b2578082015181840152602081019050610797565b50505050905001965050505050505060405180910390a15050505050565b6000806000806000806003888154811015156107e857fe5b906000526020600020906007020160030160009054906101000a900460ff16151561081257600080fd5b60038881548110151561082157fe5b906000526020600020906007020160010160009054906101000a900473ffffffffffffffffffffffffffffffffffffffff1673ffffffffffffffffffffffffffffffffffffffff163373ffffffffffffffffffffffffffffffffffffffff1614151561088c57600080fd5b6000945060038881548110151561089f57fe5b9060005260206000209060070201600401549350600092505b8651831015610b5f576003888154811015156108d057fe5b906000526020600020906007020160020187848151811015156108ef57fe5b9060200190602002015181548110151561090557fe5b9060005260206000200160009054906101000a900473ffffffffffffffffffffffffffffffffffffffff169150600a60038981548110151561094357fe5b906000526020600020906007020160060160008473ffffffffffffffffffffffffffffffffffffffff1673ffffffffffffffffffffffffffffffffffffffff1681526020019081526020016000205481151561099b57fe5b04905060018751038314156109f25783600260008473ffffffffffffffffffffffffffffffffffffffff1673ffffffffffffffffffffffffffffffffffffffff168152602001908152602001600020600101819055505b6002848115156109fe57fe5b04935083600260008473ffffffffffffffffffffffffffffffffffffffff1673ffffffffffffffffffffffffffffffffffffffff168152602001908152602001600020600101819055508173ffffffffffffffffffffffffffffffffffffffff166108fc8260038b815481101515610a7257fe5b906000526020600020906007020160060160008673ffffffffffffffffffffffffffffffffffffffff1673ffffffffffffffffffffffffffffffffffffffff16815260200190815260200160002054039081150290604051600060405180830381858888f19350505050158015610aed573d6000803e3d6000fd5b5080600389815481101515610afe57fe5b906000526020600020906007020160060160008473ffffffffffffffffffffffffffffffffffffffff1673ffffffffffffffffffffffffffffffffffffffff16815260200190815260200160002054038501945082806001019350506108b8565b6000600389815481101515610b7057fe5b906000526020600020906007020160030160006101000a81548160ff0219169083151502179055507f464c08eb3ce674626b5157c73fb3cd2ed1c42a7df708b2518499a01fa8fda8178888876040518084815260200180602001838152602001828103825284818151815260200191508051906020019060200280838360005b83811015610c0b578082015181840152602081019050610bf0565b5050505090500194505050505060405180910390a160019550505050505092915050565b34600382815481101515610c3f57fe5b906000526020600020906007020160060160003373ffffffffffffffffffffffffffffffffffffffff1673ffffffffffffffffffffffffffffffffffffffff1681526020019081526020016000208190555050565b6060600160003373ffffffffffffffffffffffffffffffffffffffff1673ffffffffffffffffffffffffffffffffffffffff16815260200190815260200160002060009054906101000a900460ff16151515610cef57600080fd5b6060604051908101604052808381526020016000815260200182815250600260003373ffffffffffffffffffffffffffffffffffffffff1673ffffffffffffffffffffffffffffffffffffffff1681526020019081526020016000206000820151816000019080519060200190610d6792919061112c565b50602082015181600101556040820151816002019080519060200190610d8e929190611236565b5090505060018060003373ffffffffffffffffffffffffffffffffffffffff1673ffffffffffffffffffffffffffffffffffffffff16815260200190815260200160002060006101000a81548160ff0219169083151502179055507ffacbe82909b7d04f1fdfcfb01dd33de8a43f2561a444b2ebd09bf895e56a4bde82600160003373ffffffffffffffffffffffffffffffffffffffff1673ffffffffffffffffffffffffffffffffffffffff16815260200190815260200160002060009054906101000a900460ff16604051808060200183151515158152602001828103825284818151815260200191508051906020019080838360005b83811015610ea2578082015181840152602081019050610e87565b50505050905090810190601f168015610ecf5780820380516001836020036101000a031916815260200191505b50935050505060405180910390a15050565b6002602052806000526040600020600091509050806000018054600181600116156101000203166002900480601f016020809104026020016040519081016040528092919081815260200182805460018160011615610100020316600290048015610f8d5780601f10610f6257610100808354040283529160200191610f8d565b820191906000526020600020905b815481529060010190602001808311610f7057829003601f168201915b5050505050908060010154905082565b6000600160003373ffffffffffffffffffffffffffffffffffffffff1673ffffffffffffffffffffffffffffffffffffffff16815260200190815260200160002060009054906101000a900460ff1615610ffa5760019050610fff565b600090505b90565b60016020528060005260406000206000915054906101000a900460ff1681565b60038181548110151561103157fe5b9060005260206000209060070201600091509050806000018054600181600116156101000203166002900480601f0160208091040260200160405190810160405280929190818152602001828054600181600116156101000203166002900480156110dd5780601f106110b2576101008083540402835291602001916110dd565b820191906000526020600020905b8154815290600101906020018083116110c057829003601f168201915b5050505050908060010160009054906101000a900473ffffffffffffffffffffffffffffffffffffffff16908060030160009054906101000a900460ff16908060040154908060050154905085565b828054600181600116156101000203166002900490600052602060002090601f016020900481019282601f1061116d57805160ff191683800117855561119b565b8280016001018555821561119b579182015b8281111561119a57825182559160200191906001019061117f565b5b5090506111a89190611283565b5090565b828054828255906000526020600020908101928215611225579160200282015b828111156112245782518260006101000a81548173ffffffffffffffffffffffffffffffffffffffff021916908373ffffffffffffffffffffffffffffffffffffffff160217905550916020019190600101906111cc565b5b50905061123291906112a8565b5090565b828054828255906000526020600020908101928215611272579160200282015b82811115611271578251825591602001919060010190611256565b5b50905061127f9190611283565b5090565b6112a591905b808211156112a1576000816000905550600101611289565b5090565b90565b6112e891905b808211156112e457600081816101000a81549073ffffffffffffffffffffffffffffffffffffffff0219169055506001016112ae565b5090565b905600a165627a7a7230582064d83181f82f49e1482be2e3c28964ae8888f45bd19282d0f312276d5ac438400029",
  "source": "// Klaytn IDE uses solidity 0.4.24 version.\n//얼마씩 처 집어넣었는지 랑 점수를 넣지 못한다는 점이 문제네\n//클레이를 받는 부분\npragma solidity ^0.4.24;\n\ncontract GSPB {\n\n    struct student{\n        string name;\n        uint point;\n        uint[] attentStudies;\n    }\n    \n    struct groupStudy{\n        string name;\n        address studyOwner;\n        address[] participants;\n        bool live; //private\n        uint point;\n        uint limit;\n        mapping(address=> uint) payment;\n        //price?\n    }\n\n    address owner;\n    bool live;\n    mapping(address => bool) public isJoin; //가입 여부 확인\n    mapping(address => student) public students;\n    groupStudy[] public groupStudyList;//mapping을 사용하는것이 더 좋을듯하다.\n\n    event joinPlatformEvent(string _name, bool isJoin);\n    event addGroupStudyEvnet(string _name, address[] _participants, uint _point, uint groupStudyNum);\n    event closeStudyEvent(uint _index, uint[] ranking, uint klay);\n    event depostieEvent(uint _index);\n\n    constructor() public{\n        owner = msg.sender;\n    }\n\n    //가입 여부 체크\n    function isJoinCheck() public returns (bool){\n        if(isJoin[msg.sender])\n            return true;\n        else\n            return false;\n    }\n\n    //가입\n    function joinPlatform(string _name) public{\n        require(!isJoin[msg.sender]);\n        uint[] memory x;\n        students[msg.sender] = student(_name, 0, x);\n        isJoin[msg.sender] = true;\n        emit joinPlatformEvent(_name, isJoin[msg.sender]);\n    }\n    //스터디 생성\n    function addGroupStudy(string _name, address[] _participants, uint _point, uint _limit)public {\n        groupStudyList.push(groupStudy(_name, msg.sender, _participants, true, _point, _limit));\n        for(uint i = 0; i < _participants.length; i++){\n            students[_participants[i]].attentStudies.push(groupStudyList.length-1);\n        }\n        emit addGroupStudyEvnet(_name, _participants, _point, groupStudyList.length-1);\n    }\n    //현재 컨트랙에 포함된 모든 KLAY\n    function getBalance() public view returns (uint){\n        return address(this).balance;\n    }\n    //개인 마다 그룹스터디에 doposite한 KLAY를 저장\n    function depostie(uint _index) public payable{\n        groupStudyList[_index].payment[msg.sender] = msg.value;\n        //스터디에 해당하는 사람만 보낼 수 있도록 하는 함수는 node.js에서 구현한느것이 좋다.\n        //public로 해놔서 그냥 불서 볼 수 있다.\n    }\n    function closeStudy(uint _index, uint[] ranking) public returns (bool){\n        require(groupStudyList[_index].live);\n        //ranking이 순위대로 왔다고 생가가하고 분배를 한다. [2,3,1,0]\n        require(msg.sender==groupStudyList[_index].studyOwner);\n        uint returnKlay = 0;\n        uint tmp = groupStudyList[_index].point;\n        for(uint i = 0; i < ranking.length; i++){\n            address target = groupStudyList[_index].participants[ranking[i]];\n            uint fee = (groupStudyList[_index].payment[target])/10; //fee is 10%\n            if (i == ranking.length-1){\n                students[target].point = tmp;\n            }\n            tmp = tmp/2;\n            students[target].point = tmp;\n            target.transfer(groupStudyList[_index].payment[target]-fee);\n            returnKlay += groupStudyList[_index].payment[target]-fee;\n        }\n        groupStudyList[_index].live = false;\n        //클레이 재분배 0.9 만큼 일단 보낸다.\n        emit closeStudyEvent( _index, ranking, returnKlay);\n        \n        return true;\n        //평가를 web에서 모두 받고 관리자가 마무리를 누르면 오게된다.\n    }\n}",
  "sourcePath": "/root/klaytn/4. test version/webUI/contracts/testGSPB.sol",
  "compiler": {
    "name": "solc",
    "version": "0.4.25+commit.59dbf8f1.Emscripten.clang"
  },
  "schemaVersion": "2.0.2",
  "updatedAt": "2019-05-28T14:31:48.054Z"
}