{
  "contractName": "testGSPB",
  "abi": [
    {
      "constant": true,
      "inputs": [
        {
          "name": "",
          "type": "address"
        }
      ],
      "name": "students",
      "outputs": [
        {
          "name": "name",
          "type": "string"
        },
        {
          "name": "point",
          "type": "uint256"
        }
      ],
      "payable": false,
      "stateMutability": "view",
      "type": "function"
    },
    {
      "constant": true,
      "inputs": [
        {
          "name": "",
          "type": "address"
        }
      ],
      "name": "isJoin",
      "outputs": [
        {
          "name": "",
          "type": "bool"
        }
      ],
      "payable": false,
      "stateMutability": "view",
      "type": "function"
    },
    {
      "constant": true,
      "inputs": [
        {
          "name": "",
          "type": "uint256"
        }
      ],
      "name": "groupStudyList",
      "outputs": [
        {
          "name": "name",
          "type": "string"
        },
        {
          "name": "studyOwner",
          "type": "address"
        },
        {
          "name": "live",
          "type": "bool"
        },
        {
          "name": "point",
          "type": "uint256"
        },
        {
          "name": "limit",
          "type": "uint256"
        }
      ],
      "payable": false,
      "stateMutability": "view",
      "type": "function"
    },
    {
      "inputs": [],
      "payable": false,
      "stateMutability": "nonpayable",
      "type": "constructor"
    },
    {
      "anonymous": false,
      "inputs": [
        {
          "indexed": false,
          "name": "_name",
          "type": "string"
        },
        {
          "indexed": false,
          "name": "isJoin",
          "type": "bool"
        }
      ],
      "name": "joinPlatformEvent",
      "type": "event"
    },
    {
      "anonymous": false,
      "inputs": [
        {
          "indexed": false,
          "name": "_name",
          "type": "string"
        },
        {
          "indexed": false,
          "name": "_participants",
          "type": "address[]"
        },
        {
          "indexed": false,
          "name": "_point",
          "type": "uint256"
        },
        {
          "indexed": false,
          "name": "groupStudyNum",
          "type": "uint256"
        }
      ],
      "name": "addGroupStudyEvnet",
      "type": "event"
    },
    {
      "anonymous": false,
      "inputs": [
        {
          "indexed": false,
          "name": "_index",
          "type": "uint256"
        },
        {
          "indexed": false,
          "name": "ranking",
          "type": "uint256[]"
        },
        {
          "indexed": false,
          "name": "klay",
          "type": "uint256"
        }
      ],
      "name": "closeStudyEvent",
      "type": "event"
    },
    {
      "anonymous": false,
      "inputs": [
        {
          "indexed": false,
          "name": "_index",
          "type": "uint256"
        }
      ],
      "name": "depostieEvent",
      "type": "event"
    },
    {
      "constant": false,
      "inputs": [],
      "name": "isJoinCheck",
      "outputs": [],
      "payable": false,
      "stateMutability": "nonpayable",
      "type": "function"
    },
    {
      "constant": true,
      "inputs": [
        {
          "name": "_index",
          "type": "uint256"
        }
      ],
      "name": "getStudyDate",
      "outputs": [
        {
          "name": "",
          "type": "address[]"
        }
      ],
      "payable": false,
      "stateMutability": "view",
      "type": "function"
    },
    {
      "constant": false,
      "inputs": [
        {
          "name": "_name",
          "type": "string"
        }
      ],
      "name": "joinPlatform",
      "outputs": [],
      "payable": false,
      "stateMutability": "nonpayable",
      "type": "function"
    },
    {
      "constant": false,
      "inputs": [
        {
          "name": "_name",
          "type": "string"
        },
        {
          "name": "_participants",
          "type": "address[]"
        },
        {
          "name": "_point",
          "type": "uint256"
        },
        {
          "name": "_limit",
          "type": "uint256"
        }
      ],
      "name": "addGroupStudy",
      "outputs": [],
      "payable": false,
      "stateMutability": "nonpayable",
      "type": "function"
    },
    {
      "constant": true,
      "inputs": [],
      "name": "getBalance",
      "outputs": [
        {
          "name": "",
          "type": "uint256"
        }
      ],
      "payable": false,
      "stateMutability": "view",
      "type": "function"
    },
    {
      "constant": false,
      "inputs": [
        {
          "name": "_index",
          "type": "uint256"
        }
      ],
      "name": "depostie",
      "outputs": [],
      "payable": true,
      "stateMutability": "payable",
      "type": "function"
    },
    {
      "constant": false,
      "inputs": [
        {
          "name": "_index",
          "type": "uint256"
        },
        {
          "name": "ranking",
          "type": "uint256[]"
        }
      ],
      "name": "closeStudy",
      "outputs": [],
      "payable": false,
      "stateMutability": "nonpayable",
      "type": "function"
    }
  ],
  "bytecode": "0x608060405234801561001057600080fd5b50336000806101000a81548173ffffffffffffffffffffffffffffffffffffffff021916908373ffffffffffffffffffffffffffffffffffffffff160217905550611343806100606000396000f3006080604052600436106100a4576000357c0100000000000000000000000000000000000000000000000000000000900463ffffffff16806312065fe0146100a95780631a4b10ee146100d457806370122e661461019457806370b50c24146102045780638005f6e4146102245780638b7d3e64146102a6578063a6c807a91461030f578063b7b68f2d146103d2578063bd4b18fc146103e9578063bd8ba45014610444575b600080fd5b3480156100b557600080fd5b506100be610536565b6040518082815260200191505060405180910390f35b3480156100e057600080fd5b50610192600480360381019080803590602001908201803590602001908080601f0160208091040260200160405190810160405280939291908181526020018383808284378201915050505050509192919290803590602001908201803590602001908080602002602001604051908101604052809392919081815260200183836020028082843782019150505050505091929192908035906020019092919080359060200190929190505050610555565b005b3480156101a057600080fd5b50610202600480360381019080803590602001909291908035906020019082018035906020019080806020026020016040519081016040528093929190818152602001838360200280828437820191505050505050919291929050505061082d565b005b61022260048036038101908080359060200190929190505050610bb7565b005b34801561023057600080fd5b5061024f60048036038101908080359060200190929190505050610c1c565b6040518080602001828103825283818151815260200191508051906020019060200280838360005b83811015610292578082015181840152602081019050610277565b505050509050019250505060405180910390f35b3480156102b257600080fd5b5061030d600480360381019080803590602001908201803590602001908080601f0160208091040260200160405190810160405280939291908181526020018383808284378201915050505050509192919290505050610cca565b005b34801561031b57600080fd5b50610350600480360381019080803573ffffffffffffffffffffffffffffffffffffffff169060200190929190505050610f17565b6040518080602001838152602001828103825284818151815260200191508051906020019080838360005b8381101561039657808201518184015260208101905061037b565b50505050905090810190601f1680156103c35780820380516001836020036101000a031916815260200191505b50935050505060405180910390f35b3480156103de57600080fd5b506103e7610fd3565b005b3480156103f557600080fd5b5061042a600480360381019080803573ffffffffffffffffffffffffffffffffffffffff16906020019092919050505061102e565b604051808215151515815260200191505060405180910390f35b34801561045057600080fd5b5061046f6004803603810190808035906020019092919050505061104e565b60405180806020018673ffffffffffffffffffffffffffffffffffffffff1673ffffffffffffffffffffffffffffffffffffffff16815260200185151515158152602001848152602001838152602001828103825287818151815260200191508051906020019080838360005b838110156104f75780820151818401526020810190506104dc565b50505050905090810190601f1680156105245780820380516001836020036101000a031916815260200191505b50965050505050505060405180910390f35b60003073ffffffffffffffffffffffffffffffffffffffff1631905090565b6000600360c0604051908101604052808781526020013373ffffffffffffffffffffffffffffffffffffffff168152602001868152602001600115158152602001858152602001848152509080600181540180825580915050906001820390600052602060002090600702016000909192909190915060008201518160000190805190602001906105e7929190611158565b5060208201518160010160006101000a81548173ffffffffffffffffffffffffffffffffffffffff021916908373ffffffffffffffffffffffffffffffffffffffff160217905550604082015181600201908051906020019061064b9291906111d8565b5060608201518160030160006101000a81548160ff0219169083151502179055506080820151816004015560a08201518160050155505050600090505b8351811015610729576002600085838151811015156106a357fe5b9060200190602002015173ffffffffffffffffffffffffffffffffffffffff1673ffffffffffffffffffffffffffffffffffffffff16815260200190815260200160002060020160016003805490500390806001815401808255809150509060018203906000526020600020016000909192909190915055508080600101915050610688565b7fc2ca714755a82e3176c4ca19fb773d52efe941f0e1ce1b516bc74873ec462b59858585600160038054905003604051808060200180602001858152602001848152602001838103835287818151815260200191508051906020019080838360005b838110156107a657808201518184015260208101905061078b565b50505050905090810190601f1680156107d35780820380516001836020036101000a031916815260200191505b50838103825286818151815260200191508051906020019060200280838360005b8381101561080f5780820151818401526020810190506107f4565b50505050905001965050505050505060405180910390a15050505050565b60008060008060038681548110151561084257fe5b906000526020600020906007020160030160009054906101000a900460ff16151561086c57600080fd5b60038681548110151561087b57fe5b906000526020600020906007020160010160009054906101000a900473ffffffffffffffffffffffffffffffffffffffff1673ffffffffffffffffffffffffffffffffffffffff163373ffffffffffffffffffffffffffffffffffffffff161415156108e657600080fd5b6003868154811015156108f557fe5b9060005260206000209060070201600401549350600092505b8451831015610b515760038681548110151561092657fe5b9060005260206000209060070201600201858481518110151561094557fe5b9060200190602002015181548110151561095b57fe5b9060005260206000200160009054906101000a900473ffffffffffffffffffffffffffffffffffffffff169150600a60038781548110151561099957fe5b906000526020600020906007020160060160008473ffffffffffffffffffffffffffffffffffffffff1673ffffffffffffffffffffffffffffffffffffffff168152602001908152602001600020548115156109f157fe5b0490506001855103831415610a485783600260008473ffffffffffffffffffffffffffffffffffffffff1673ffffffffffffffffffffffffffffffffffffffff168152602001908152602001600020600101819055505b600284811515610a5457fe5b04935083600260008473ffffffffffffffffffffffffffffffffffffffff1673ffffffffffffffffffffffffffffffffffffffff168152602001908152602001600020600101819055508173ffffffffffffffffffffffffffffffffffffffff166108fc82600389815481101515610ac857fe5b906000526020600020906007020160060160008673ffffffffffffffffffffffffffffffffffffffff1673ffffffffffffffffffffffffffffffffffffffff16815260200190815260200160002054039081150290604051600060405180830381858888f19350505050158015610b43573d6000803e3d6000fd5b50828060010193505061090e565b83600387815481101515610b6157fe5b9060005260206000209060070201600401819055506000600387815481101515610b8757fe5b906000526020600020906007020160030160006101000a81548160ff021916908315150217905550505050505050565b34600382815481101515610bc757fe5b906000526020600020906007020160060160003373ffffffffffffffffffffffffffffffffffffffff1673ffffffffffffffffffffffffffffffffffffffff1681526020019081526020016000208190555050565b6060600382815481101515610c2d57fe5b9060005260206000209060070201600201805480602002602001604051908101604052809291908181526020018280548015610cbe57602002820191906000526020600020905b8160009054906101000a900473ffffffffffffffffffffffffffffffffffffffff1673ffffffffffffffffffffffffffffffffffffffff1681526020019060010190808311610c74575b50505050509050919050565b6060600160003373ffffffffffffffffffffffffffffffffffffffff1673ffffffffffffffffffffffffffffffffffffffff16815260200190815260200160002060009054906101000a900460ff16151515610d2557600080fd5b6060604051908101604052808381526020016000815260200182815250600260003373ffffffffffffffffffffffffffffffffffffffff1673ffffffffffffffffffffffffffffffffffffffff1681526020019081526020016000206000820151816000019080519060200190610d9d929190611158565b50602082015181600101556040820151816002019080519060200190610dc4929190611262565b5090505060018060003373ffffffffffffffffffffffffffffffffffffffff1673ffffffffffffffffffffffffffffffffffffffff16815260200190815260200160002060006101000a81548160ff0219169083151502179055507ffacbe82909b7d04f1fdfcfb01dd33de8a43f2561a444b2ebd09bf895e56a4bde82600160003373ffffffffffffffffffffffffffffffffffffffff1673ffffffffffffffffffffffffffffffffffffffff16815260200190815260200160002060009054906101000a900460ff16604051808060200183151515158152602001828103825284818151815260200191508051906020019080838360005b83811015610ed8578082015181840152602081019050610ebd565b50505050905090810190601f168015610f055780820380516001836020036101000a031916815260200191505b50935050505060405180910390a15050565b6002602052806000526040600020600091509050806000018054600181600116156101000203166002900480601f016020809104026020016040519081016040528092919081815260200182805460018160011615610100020316600290048015610fc35780601f10610f9857610100808354040283529160200191610fc3565b820191906000526020600020905b815481529060010190602001808311610fa657829003601f168201915b5050505050908060010154905082565b600160003373ffffffffffffffffffffffffffffffffffffffff1673ffffffffffffffffffffffffffffffffffffffff16815260200190815260200160002060009054906101000a900460ff1615151561102c57600080fd5b565b60016020528060005260406000206000915054906101000a900460ff1681565b60038181548110151561105d57fe5b9060005260206000209060070201600091509050806000018054600181600116156101000203166002900480601f0160208091040260200160405190810160405280929190818152602001828054600181600116156101000203166002900480156111095780601f106110de57610100808354040283529160200191611109565b820191906000526020600020905b8154815290600101906020018083116110ec57829003601f168201915b5050505050908060010160009054906101000a900473ffffffffffffffffffffffffffffffffffffffff16908060030160009054906101000a900460ff16908060040154908060050154905085565b828054600181600116156101000203166002900490600052602060002090601f016020900481019282601f1061119957805160ff19168380011785556111c7565b828001600101855582156111c7579182015b828111156111c65782518255916020019190600101906111ab565b5b5090506111d491906112af565b5090565b828054828255906000526020600020908101928215611251579160200282015b828111156112505782518260006101000a81548173ffffffffffffffffffffffffffffffffffffffff021916908373ffffffffffffffffffffffffffffffffffffffff160217905550916020019190600101906111f8565b5b50905061125e91906112d4565b5090565b82805482825590600052602060002090810192821561129e579160200282015b8281111561129d578251825591602001919060010190611282565b5b5090506112ab91906112af565b5090565b6112d191905b808211156112cd5760008160009055506001016112b5565b5090565b90565b61131491905b8082111561131057600081816101000a81549073ffffffffffffffffffffffffffffffffffffffff0219169055506001016112da565b5090565b905600a165627a7a7230582059d727f4093dcf76d69f528f176d313fbc181ccefd941d369908181b4f3016da0029",
  "source": "// Klaytn IDE uses solidity 0.4.24 version.\n//얼마씩 처 집어넣었는지 랑 점수를 넣지 못한다는 점이 문제네\n//클레이를 받는 부분\npragma solidity ^0.4.24;\n\ncontract testGSPB {\n\n    struct student{\n        string name;\n        uint point;\n        uint[] attentStudies;\n    }\n    \n    struct groupStudy{\n        string name;\n        address studyOwner;\n        address[] participants;\n        bool live; //private\n        uint point;\n        uint limit;\n        mapping(address=> uint) payment;\n        //price?\n    }\n\n    address owner;\n    bool live;\n    mapping(address => bool) public isJoin; //가입 여부 확인\n    mapping(address => student) public students;\n    groupStudy[] public groupStudyList;//mapping을 사용하는것이 더 좋을듯하다.\n\n    event joinPlatformEvent(string _name, bool isJoin);\n    event addGroupStudyEvnet(string _name, address[] _participants, uint _point, uint groupStudyNum);\n    event closeStudyEvent(uint _index, uint[] ranking, uint klay);\n    event depostieEvent(uint _index);\n\n    constructor() public{\n        owner = msg.sender;\n    }\n\n    //가입 여부 체크\n    function isJoinCheck() public{\n        require(!isJoin[msg.sender]);\n    }\n    function getStudyDate(uint _index) public view returns (address[]){\n        return groupStudyList[_index].participants;\n    }\n\n    //가입\n    function joinPlatform(string _name) public{\n        require(!isJoin[msg.sender]);\n        uint[] memory x;\n        students[msg.sender] = student(_name, 0, x);\n        isJoin[msg.sender] = true;\n        emit joinPlatformEvent(_name, isJoin[msg.sender]);\n    }\n    //스터디 생성\n    function addGroupStudy(string _name, address[] _participants, uint _point, uint _limit)public {\n        groupStudyList.push(groupStudy(_name, msg.sender, _participants, true, _point, _limit));\n        for(uint i = 0; i < _participants.length; i++){\n            students[_participants[i]].attentStudies.push(groupStudyList.length-1);\n        }\n        emit addGroupStudyEvnet(_name, _participants, _point, groupStudyList.length-1);\n    }\n    //현재 컨트랙에 포함된 모든 KLAY\n    function getBalance() public view returns (uint){\n        return address(this).balance;\n    }\n    //개인 마다 그룹스터디에 doposite한 KLAY를 저장\n    function depostie(uint _index) public payable{\n        groupStudyList[_index].payment[msg.sender] = msg.value;\n        //스터디에 해당하는 사람만 보낼 수 있도록 하는 함수는 node.js에서 구현한느것이 좋다.\n        //public로 해놔서 그냥 불서 볼 수 있다.\n    }\n    function closeStudy(uint _index, uint[] ranking) public {\n        require(groupStudyList[_index].live);\n        //ranking이 순위대로 왔다고 생가가하고 분배를 한다. [2,3,1,0]\n        require(msg.sender==groupStudyList[_index].studyOwner);\n        uint tmp = groupStudyList[_index].point;\n        for(uint i = 0; i < ranking.length; i++){\n            address target = groupStudyList[_index].participants[ranking[i]];\n            uint fee = (groupStudyList[_index].payment[target])/10; //fee is 10%\n            if (i == ranking.length-1){\n                students[target].point = tmp;\n            }\n            tmp = tmp/2;\n            students[target].point = tmp;\n            target.transfer(groupStudyList[_index].payment[target]-fee);\n        }\n        groupStudyList[_index].point = tmp;\n\n        groupStudyList[_index].live = false;\n        //클레이 재분배 0.9 만큼 일단 보낸다.\n        //평가를 web에서 모두 받고 관리자가 마무리를 누르면 오게된다.\n        // return true\n    }\n}",
  "sourcePath": "/root/klaytn/4. test version/webUI/contracts/testGSPB.sol",
  "compiler": {
    "name": "solc",
    "version": "0.4.25+commit.59dbf8f1.Emscripten.clang"
  },
  "schemaVersion": "2.0.2",
  "updatedAt": "2019-05-31T14:02:06.579Z"
}